:020000000B28CB
:10000800803120007F08F0007008FF0009000C28EC
:1000180020000E2862205120FF30F6000030F70043
:10002800F201F301FF30F400FF30F50020008C12DC
:100038000C120C117708803AF10080307102031D10
:10004800282820001508760203182C2820008C1672
:100058000B1D1E280B1120008C120130F2070030F6
:10006800F33D643072067304031D1E28F201F30188
:100078007408F6077508F73D760A7704031D4828C3
:10008800FF30F400FF30F50076087704031D1E28C2
:100098000130F4000030F5001E2823008C012100F7
:1000A8000C110C128C120C1420000C110C128C1256
:1000B8009501210095121512951508005A30210056
:0800C80099001A1A08006528CE
:020000040001F9
:04000E00E4FFFFFF0D
:00000001FF
