:020000000B28CB
:10000800803120007F08F0007008FF0009000C28EC
:1000180020000E28B620A5202000A001A101FF3055
:10002800A8000030A900FF30A200FF30A3008030F4
:10003800AA000030AB00FF30A400FF30A500AC01DF
:10004800AD010130A6000030A7008C120C120C1173
:1000580020002908803AF10080307102031D3628FB
:100068001508280203183A2820000C1520002B0830
:10007800803AF10080307102031D442815082A02D5
:100088000318482820008C1620002D08803AF1001B
:1000980080307102031D522815082C0203185628B7
:1000A80020000C160B1D2C280B1120008C120C1292
:1000B8000C110130A0070030A13D64302006210456
:1000C800031D2C28A001A1012208A8072308A93D87
:1000D8002408AA072508AB3D2608AC072708AD3D2C
:1000E800280A2904031D7C28FF30A200FF30A30042
:1000F80028082904031D84280130A2000030A30029
:100108002A0A2B04031D8C28FF30A400FF30A50009
:100118002A082B04031D94280130A4000030A500F0
:100128002C0A2D04031D9C28FF30A600FF30A700D1
:100138002C082D04031D2C280130A6000030A70030
:100148002C2823008C0121000C110C128C120C1489
:1001580020000C110C128C12950121009512151219
:10016800951508005A30210099001A1A0800B92874
:020000040001F9
:04000E00E4FFFFFF0D
:00000001FF
