:020000000B28CB
:10000800803120007F08F0007008FF0009000C28EC
:1000180020000E28CF20BE202000A001A101FF3023
:10002800A8000030A900FF30A200FF30A3008030F4
:10003800AA000030AB00FF30A400FF30A500AC01DF
:10004800AD010130A6000030A7008C120C120C1173
:1000580039288C120C120C11403021001906031992
:100068003928403099001A1D372820000C1C2D28EB
:100078005A3021001906031945285A3099001A1ECA
:10008800432820002908803AF10080307102031DBE
:100098004F28150828020318532820000C152000A3
:1000A8002B08803AF10080307102031D5D28150885
:1000B8002A020318612820008C1620002D08803A97
:1000C800F10080307102031D6B2815082C020318FB
:1000D8006F2820000C160B1D39280B1120008C12DC
:1000E8000C120C110130A0070030A13D643020062D
:1000F8002104031D3928A001A1012208A80723080B
:10010800A93D2408AA072508AB3D2608AC072708FF
:10011800AD3D280A2904031D9528FF30A200FF30B1
:10012800A30028082904031D9D280130A2000030DF
:10013800A3002A0A2B04031DA528FF30A400FF30C2
:10014800A5002A082B04031DAD280130A4000030A7
:10015800A5002C0A2D04031DB528FF30A600FF308A
:10016800A7002C082D04031D39280130A6000030F3
:10017800A700392823008C0121000C110C128C12C5
:100188000C1420000C110C128C12950121009512F0
:100198001512951508005A30210099001A1A0800FE
:0201A800D2285B
:020000040001F9
:04000E00E4FFFFFF0D
:00000001FF
